{"abi":[{"type":"constructor","inputs":[{"name":"_positionReader","type":"address","internalType":"address"},{"name":"_markPxReader","type":"address","internalType":"address"}],"stateMutability":"nonpayable"},{"type":"function","name":"claimWinnings","inputs":[],"outputs":[],"stateMutability":"nonpayable"},{"type":"function","name":"endTime","inputs":[],"outputs":[{"name":"","type":"uint256","internalType":"uint256"}],"stateMutability":"view"},{"type":"function","name":"factory","inputs":[],"outputs":[{"name":"","type":"address","internalType":"address"}],"stateMutability":"view"},{"type":"function","name":"getTotalPool","inputs":[],"outputs":[{"name":"","type":"uint256","internalType":"uint256"}],"stateMutability":"view"},{"type":"function","name":"getUserBet","inputs":[{"name":"user","type":"address","internalType":"address"}],"outputs":[{"name":"profitBet","type":"uint256","internalType":"uint256"},{"name":"lossBet","type":"uint256","internalType":"uint256"}],"stateMutability":"view"},{"type":"function","name":"initialize","inputs":[{"name":"_targetUser","type":"address","internalType":"address"},{"name":"_perpId","type":"uint32","internalType":"uint32"},{"name":"_endTime","type":"uint256","internalType":"uint256"}],"outputs":[],"stateMutability":"nonpayable"},{"type":"function","name":"isSettled","inputs":[],"outputs":[{"name":"","type":"bool","internalType":"bool"}],"stateMutability":"view"},{"type":"function","name":"markPxReader","inputs":[],"outputs":[{"name":"","type":"address","internalType":"address"}],"stateMutability":"view"},{"type":"function","name":"outcome","inputs":[],"outputs":[{"name":"","type":"uint8","internalType":"enum PnlBet.Outcome"}],"stateMutability":"view"},{"type":"function","name":"perpId","inputs":[],"outputs":[{"name":"","type":"uint32","internalType":"uint32"}],"stateMutability":"view"},{"type":"function","name":"placeBet","inputs":[{"name":"isBettingOnProfit","type":"bool","internalType":"bool"}],"outputs":[],"stateMutability":"payable"},{"type":"function","name":"positionReader","inputs":[],"outputs":[{"name":"","type":"address","internalType":"address"}],"stateMutability":"view"},{"type":"function","name":"profitableBets","inputs":[{"name":"","type":"address","internalType":"address"}],"outputs":[{"name":"","type":"uint256","internalType":"uint256"}],"stateMutability":"view"},{"type":"function","name":"profitablePoolBalance","inputs":[],"outputs":[{"name":"","type":"uint256","internalType":"uint256"}],"stateMutability":"view"},{"type":"function","name":"settle","inputs":[],"outputs":[],"stateMutability":"nonpayable"},{"type":"function","name":"targetUser","inputs":[],"outputs":[{"name":"","type":"address","internalType":"address"}],"stateMutability":"view"},{"type":"function","name":"unprofitableBets","inputs":[{"name":"","type":"address","internalType":"address"}],"outputs":[{"name":"","type":"uint256","internalType":"uint256"}],"stateMutability":"view"},{"type":"function","name":"unprofitablePoolBalance","inputs":[],"outputs":[{"name":"","type":"uint256","internalType":"uint256"}],"stateMutability":"view"},{"type":"event","name":"BetPlaced","inputs":[{"name":"bettor","type":"address","indexed":true,"internalType":"address"},{"name":"isBettingOnProfit","type":"bool","indexed":false,"internalType":"bool"},{"name":"amount","type":"uint256","indexed":false,"internalType":"uint256"}],"anonymous":false},{"type":"event","name":"BetSettled","inputs":[{"name":"outcome","type":"uint8","indexed":false,"internalType":"enum PnlBet.Outcome"},{"name":"totalPool","type":"uint256","indexed":false,"internalType":"uint256"}],"anonymous":false},{"type":"event","name":"Initialized","inputs":[{"name":"version","type":"uint64","indexed":false,"internalType":"uint64"}],"anonymous":false},{"type":"event","name":"WinningsClaimed","inputs":[{"name":"winner","type":"address","indexed":true,"internalType":"address"},{"name":"amount","type":"uint256","indexed":false,"internalType":"uint256"}],"anonymous":false},{"type":"error","name":"AlreadySettled","inputs":[]},{"type":"error","name":"BetNotOver","inputs":[]},{"type":"error","name":"BetNotSettled","inputs":[]},{"type":"error","name":"BettingClosed","inputs":[]},{"type":"error","name":"InvalidInitialization","inputs":[]},{"type":"error","name":"NoWinnings","inputs":[]},{"type":"error","name":"NotInitializing","inputs":[]},{"type":"error","name":"ReentrancyGuardReentrantCall","inputs":[]},{"type":"error","name":"TransferFailed","inputs":[]}],"bytecode":{"object":"0x60e03461015757610dd4906001600160401b0390601f38849003908101601f19168201908382118383101761015b57808391604096879485528339810103126101575761005760206100508361016f565b920161016f565b60015f5533608052906001600160a01b03908181161561014e575b60a052811615610145575b60c0527ff0c57e16840df040f15088dc2f81fe391c3923bec73e23a9662efc9c229c6a009081549060ff82851c166101345780808316036100f0575b8351610c5090816101848239608051816101b0015260a0518181816101260152610548015260c05181818161040101526106120152f35b6001600160401b0319909116811790915581519081527fc7f505b2f371ae2175ee4913f4499e1f2633a7b5936321eed1cdaeb6115181d290602090a15f80806100b9565b835163f92ee8a960e01b8152600490fd5b5061080661007d565b50610800610072565b5f80fd5b634e487b7160e01b5f52604160045260245ffd5b51906001600160a01b03821682036101575756fe6080604081815260049182361015610015575f80fd5b5f92833560e01c918263096a377814610a29575081630e988e4b146109f15781630f19aaef1461088057816311da60b4146104dc57816322137894146104be57816327793f87146104955781633197cbb6146104765781633270bb5b1461044f578163528eebea146104305781636996cf55146103ec57816375f4d677146103c157816394dcc29214610389578163b401faf11461020757508063c255343e146101df578063c45a01551461019c578063c96adb0114610155578063ef204415146101125763f96e7934146100e8575f80fd5b3461010e578160031936011261010e5760209063ffffffff60015460a01c169051908152f35b5080fd5b503461010e578160031936011261010e57517f00000000000000000000000000000000000000000000000000000000000000006001600160a01b03168152602090f35b509034610199576020366003190112610199576001600160a01b03610178610b44565b16815260056020528180822054916006602052205482519182526020820152f35b80fd5b503461010e578160031936011261010e57517f00000000000000000000000000000000000000000000000000000000000000006001600160a01b03168152602090f35b503461010e578160031936011261010e5760015490516001600160a01b039091168152602090f35b9190503461038557826003193601126103855760ff60075460081c161561037857610230610ba0565b60035461023f83548092610b7f565b9060ff6007541660038110156103655760010361034e57503384526005602052818420908154908560035493555b811561033e578261031957509050915b8380808086335af13d15610314573d67ffffffffffffffff8111610301578351906102b2601f8201601f191660200183610bc1565b81528560203d92013e5b156102f35750519081527f1a31e733a172afcf46074b3106c17f0c298e226442682a03c1e99ce256139ec260203392a26001815580f35b90516312171d8360e31b8152fd5b634e487b7160e01b865260418352602486fd5b6102bc565b8082029182040361032b57049161027d565b634e487b7160e01b855260118452602485fd5b505050516330a748d360e11b8152fd5b33855260066020528285209185835492935561026d565b634e487b7160e01b865260218552602486fd5b5163616e4dc160e01b8152fd5b8280fd5b50503461010e57602036600319011261010e5760209181906001600160a01b036103b1610b44565b1681526005845220549051908152f35b828434610199578060031936011261019957506103e5602092600354905490610b7f565b9051908152f35b50503461010e578160031936011261010e57517f00000000000000000000000000000000000000000000000000000000000000006001600160a01b03168152602090f35b50503461010e578160031936011261010e576020906003549051908152f35b50503461010e578160031936011261010e5760209060ff60075460081c1690519015158152f35b50503461010e578160031936011261010e576020906002549051908152f35b50503461010e578160031936011261010e576020906104bc60ff6007541691518092610b5e565bf35b90503461038557826003193601126103855760209250549051908152f35b83833461010e578160031936011261010e5760025442106108715760079260ff845460081c166108645761050e610ba0565b60015482516389cf7c8960e01b81526001600160a01b038083168483015260a092831c61ffff8116602480850191909152929380856044817f000000000000000000000000000000000000000000000000000000000000000087165afa94851561085a5788956107a2575b50508351880b6105f157505050507f7393e9f7d40d56d50414bddfa47640f8d7d9475017f83adaa150788c3222101392936105e46105d860ff93600285198554161784555b835461ff0019811661010017909455600354905490610b7f565b91845193849116610b5e565b6020820152a16001815580f35b63ffffffff8360209288519485938492636477646360e11b845216898301527f0000000000000000000000000000000000000000000000000000000000000000165afa90811561079857869161075b575b5067ffffffffffffffff80602085015116918185518a0b898112155f14610745575b1690811561073357821692041680820393878212838612811690848713901516176107215751880b84810294888112600160ff1b83141661070f57850514911417156106fe5750936105e46105d860ff93867f7393e9f7d40d56d50414bddfa47640f8d7d9475017f83adaa150788c322210139798135f146106ef57600185198554161784556105be565b600285198554161784556105be565b634e487b7160e01b85526011835284fd5b634e487b7160e01b8952601187528489fd5b634e487b7160e01b8852601186528388fd5b634e487b7160e01b8952601287528489fd5b9050600160ff1b811461070f5782908903610664565b90506020813d8211610790575b8161077560209383610bc1565b8101031261078c5761078690610c05565b87610642565b8580fd5b3d9150610768565b85513d88823e3d90fd5b908092955081813d8311610853575b6107bb8183610bc1565b8101031261083957865191820182811067ffffffffffffffff8211176108415787526107e681610bf7565b82526107f460208201610c05565b6020830152610804878201610bf7565b87830152606081015163ffffffff8116810361083d576060830152608001518015158103610839576080820152928880610579565b8780fd5b8880fd5b634e487b7160e01b8952604187528489fd5b503d6107b1565b87513d8a823e3d90fd5b905162560ff960e81b8152fd5b516301253fe760e11b81529050fd5b9050346103855760603660031901126103855761089b610b44565b906024359163ffffffff831683036109ed577ff0c57e16840df040f15088dc2f81fe391c3923bec73e23a9662efc9c229c6a0092835460ff81871c16159367ffffffffffffffff8216801590816109e5575b60011490816109db575b1590816109d2575b506109c4575067ffffffffffffffff1981166001178555836109a5575b50600180546001600160c01b0319166001600160a01b039093169290921760a09190911b63ffffffff60a01b161790556044356002556007805460ff19169055610964578280f35b805468ff00000000000000001916905551600181527fc7f505b2f371ae2175ee4913f4499e1f2633a7b5936321eed1cdaeb6115181d290602090a15f808280f35b68ffffffffffffffffff1916680100000000000000011784555f61091c565b865163f92ee8a960e01b8152fd5b9050155f6108ff565b303b1591506108f7565b8691506108ed565b8480fd5b50503461010e57602036600319011261010e5760209181906001600160a01b03610a19610b44565b1681526006845220549051908152f35b9291506020366003190112610b405780358015159384820361078c57600254421015610b325750610a58610ba0565b3415610aef577fe57fa5a543ebcdebf2a7d7102ac913e14454cec006468e43a6916e95bdfcea9e92919015610ac557503384526005602052808420610a9e348254610b7f565b9055610aac34600354610b7f565b6003555b80519283523460208401523392a26001815580f35b3385526006602052818520610adb348254610b7f565b9055610ae8348254610b7f565b9055610ab0565b506020606492519162461bcd60e51b8352820152601860248201527f4d75737420626574206e6f6e2d7a65726f20616d6f756e7400000000000000006044820152fd5b6330e2a62560e11b81529050fd5b8380fd5b600435906001600160a01b0382168203610b5a57565b5f80fd5b906003821015610b6b5752565b634e487b7160e01b5f52602160045260245ffd5b91908201809211610b8c57565b634e487b7160e01b5f52601160045260245ffd5b60025f5414610baf5760025f55565b604051633ee5aeb560e01b8152600490fd5b90601f8019910116810190811067ffffffffffffffff821117610be357604052565b634e487b7160e01b5f52604160045260245ffd5b51908160070b8203610b5a57565b519067ffffffffffffffff82168203610b5a5756fea26469706673582212201505476ca979f390d7917d90c77ad1b4284811670fca13d5cc47245a5d3f616b64736f6c63430008140033","linkReferences":{}},"methodIdentifiers":{"claimWinnings()":"b401faf1","endTime()":"3197cbb6","factory()":"c45a0155","getTotalPool()":"75f4d677","getUserBet(address)":"c96adb01","initialize(address,uint32,uint256)":"0f19aaef","isSettled()":"3270bb5b","markPxReader()":"6996cf55","outcome()":"27793f87","perpId()":"f96e7934","placeBet(bool)":"096a3778","positionReader()":"ef204415","profitableBets(address)":"94dcc292","profitablePoolBalance()":"528eebea","settle()":"11da60b4","targetUser()":"c255343e","unprofitableBets(address)":"0e988e4b","unprofitablePoolBalance()":"22137894"},"id":30}