{"abi":[{"type":"function","name":"sendRawAction","inputs":[{"name":"data","type":"bytes","internalType":"bytes"}],"outputs":[],"stateMutability":"nonpayable"},{"type":"event","name":"RawAction","inputs":[{"name":"user","type":"address","indexed":true,"internalType":"address"},{"name":"data","type":"bytes","indexed":false,"internalType":"bytes"}],"anonymous":false}],"bytecode":{"object":"0x608080604052346100165761013f908161001b8239f35b5f80fdfe6080604052600480361015610012575f80fd5b5f90813560e01c6317938e1314610027575f80fd5b3461010557602036600319011261010557803567ffffffffffffffff918282116101015736602383011215610101578181013592831161010157602490368285850101116100fd5784929184915b61019085106100d357507f8c7f585fb295f7eb1e6aeb8fba61b23a4fe60beda405f0045073b185c74412e39350604051926020845282602085015201604083013783604084830101526040813394601f80199101168101030190a280f35b915091925f1981146100eb5760010192918491610075565b50634e487b7160e01b85526011905283fd5b8480fd5b8380fd5b5080fdfea2646970667358221220ba83ea78c3a0f668bad09041307b4418a407b116e150e99562a09f4d5e38d04e64736f6c63430008140033","linkReferences":{}},"methodIdentifiers":{"sendRawAction(bytes)":"17938e13"},"id":31}