{"abi":[{"type":"constructor","inputs":[],"stateMutability":"nonpayable"},{"type":"function","name":"accountMarginSummary","inputs":[{"name":"","type":"uint32","internalType":"uint32"},{"name":"","type":"address","internalType":"address"}],"outputs":[{"name":"","type":"tuple","internalType":"struct L1Read.AccountMarginSummary","components":[{"name":"accountValue","type":"int64","internalType":"int64"},{"name":"marginUsed","type":"uint64","internalType":"uint64"},{"name":"ntlPos","type":"uint64","internalType":"uint64"},{"name":"rawUsd","type":"int64","internalType":"int64"}]}],"stateMutability":"pure"},{"type":"function","name":"bbo","inputs":[{"name":"","type":"uint32","internalType":"uint32"}],"outputs":[{"name":"","type":"tuple","internalType":"struct L1Read.Bbo","components":[{"name":"bid","type":"uint64","internalType":"uint64"},{"name":"ask","type":"uint64","internalType":"uint64"}]}],"stateMutability":"pure"},{"type":"function","name":"coreUserExists","inputs":[{"name":"","type":"address","internalType":"address"}],"outputs":[{"name":"","type":"tuple","internalType":"struct L1Read.CoreUserExists","components":[{"name":"exists","type":"bool","internalType":"bool"}]}],"stateMutability":"pure"},{"type":"function","name":"delegations","inputs":[{"name":"","type":"address","internalType":"address"}],"outputs":[{"name":"","type":"tuple[]","internalType":"struct L1Read.Delegation[]","components":[{"name":"validator","type":"address","internalType":"address"},{"name":"amount","type":"uint64","internalType":"uint64"},{"name":"lockedUntilTimestamp","type":"uint64","internalType":"uint64"}]}],"stateMutability":"pure"},{"type":"function","name":"delegatorSummary","inputs":[{"name":"","type":"address","internalType":"address"}],"outputs":[{"name":"","type":"tuple","internalType":"struct L1Read.DelegatorSummary","components":[{"name":"delegated","type":"uint64","internalType":"uint64"},{"name":"undelegated","type":"uint64","internalType":"uint64"},{"name":"totalPendingWithdrawal","type":"uint64","internalType":"uint64"},{"name":"nPendingWithdrawals","type":"uint64","internalType":"uint64"}]}],"stateMutability":"pure"},{"type":"function","name":"l1BlockNumber","inputs":[],"outputs":[{"name":"","type":"uint64","internalType":"uint64"}],"stateMutability":"view"},{"type":"function","name":"markPx","inputs":[{"name":"index","type":"uint32","internalType":"uint32"}],"outputs":[{"name":"","type":"uint64","internalType":"uint64"}],"stateMutability":"view"},{"type":"function","name":"oraclePx","inputs":[{"name":"","type":"uint32","internalType":"uint32"}],"outputs":[{"name":"","type":"uint64","internalType":"uint64"}],"stateMutability":"pure"},{"type":"function","name":"perpAssetInfo","inputs":[{"name":"","type":"uint32","internalType":"uint32"}],"outputs":[{"name":"","type":"tuple","internalType":"struct L1Read.PerpAssetInfo","components":[{"name":"coin","type":"string","internalType":"string"},{"name":"marginTableId","type":"uint32","internalType":"uint32"},{"name":"szDecimals","type":"uint8","internalType":"uint8"},{"name":"maxLeverage","type":"uint8","internalType":"uint8"},{"name":"onlyIsolated","type":"bool","internalType":"bool"}]}],"stateMutability":"pure"},{"type":"function","name":"position","inputs":[{"name":"user","type":"address","internalType":"address"},{"name":"perp","type":"uint16","internalType":"uint16"}],"outputs":[{"name":"","type":"tuple","internalType":"struct L1Read.Position","components":[{"name":"szi","type":"int64","internalType":"int64"},{"name":"entryNtl","type":"uint64","internalType":"uint64"},{"name":"isolatedRawUsd","type":"int64","internalType":"int64"},{"name":"leverage","type":"uint32","internalType":"uint32"},{"name":"isIsolated","type":"bool","internalType":"bool"}]}],"stateMutability":"view"},{"type":"function","name":"setMockMarkPrice","inputs":[{"name":"index","type":"uint32","internalType":"uint32"},{"name":"price","type":"uint64","internalType":"uint64"}],"outputs":[],"stateMutability":"nonpayable"},{"type":"function","name":"setMockPosition","inputs":[{"name":"user","type":"address","internalType":"address"},{"name":"perp","type":"uint16","internalType":"uint16"},{"name":"szi","type":"int64","internalType":"int64"},{"name":"entryNtl","type":"uint64","internalType":"uint64"}],"outputs":[],"stateMutability":"nonpayable"},{"type":"function","name":"spotBalance","inputs":[{"name":"","type":"address","internalType":"address"},{"name":"","type":"uint64","internalType":"uint64"}],"outputs":[{"name":"","type":"tuple","internalType":"struct L1Read.SpotBalance","components":[{"name":"total","type":"uint64","internalType":"uint64"},{"name":"hold","type":"uint64","internalType":"uint64"},{"name":"entryNtl","type":"uint64","internalType":"uint64"}]}],"stateMutability":"pure"},{"type":"function","name":"spotInfo","inputs":[{"name":"","type":"uint32","internalType":"uint32"}],"outputs":[{"name":"","type":"tuple","internalType":"struct L1Read.SpotInfo","components":[{"name":"name","type":"string","internalType":"string"},{"name":"tokens","type":"uint64[2]","internalType":"uint64[2]"}]}],"stateMutability":"pure"},{"type":"function","name":"spotPx","inputs":[{"name":"","type":"uint32","internalType":"uint32"}],"outputs":[{"name":"","type":"uint64","internalType":"uint64"}],"stateMutability":"pure"},{"type":"function","name":"tokenInfo","inputs":[{"name":"","type":"uint32","internalType":"uint32"}],"outputs":[{"name":"","type":"tuple","internalType":"struct L1Read.TokenInfo","components":[{"name":"name","type":"string","internalType":"string"},{"name":"spots","type":"uint64[]","internalType":"uint64[]"},{"name":"deployerTradingFeeShare","type":"uint64","internalType":"uint64"},{"name":"deployer","type":"address","internalType":"address"},{"name":"evmContract","type":"address","internalType":"address"},{"name":"szDecimals","type":"uint8","internalType":"uint8"},{"name":"weiDecimals","type":"uint8","internalType":"uint8"},{"name":"evmExtraWeiDecimals","type":"int8","internalType":"int8"}]}],"stateMutability":"pure"},{"type":"function","name":"tokenSupply","inputs":[{"name":"","type":"uint32","internalType":"uint32"}],"outputs":[{"name":"","type":"tuple","internalType":"struct L1Read.TokenSupply","components":[{"name":"maxSupply","type":"uint64","internalType":"uint64"},{"name":"totalSupply","type":"uint64","internalType":"uint64"},{"name":"circulatingSupply","type":"uint64","internalType":"uint64"},{"name":"futureEmissions","type":"uint64","internalType":"uint64"},{"name":"nonCirculatingUserBalances","type":"tuple[]","internalType":"struct L1Read.UserBalance[]","components":[{"name":"user","type":"address","internalType":"address"},{"name":"balance","type":"uint64","internalType":"uint64"}]}]}],"stateMutability":"pure"},{"type":"function","name":"userVaultEquity","inputs":[{"name":"","type":"address","internalType":"address"},{"name":"","type":"address","internalType":"address"}],"outputs":[{"name":"","type":"tuple","internalType":"struct L1Read.UserVaultEquity","components":[{"name":"equity","type":"uint64","internalType":"uint64"},{"name":"lockedUntilTimestamp","type":"uint64","internalType":"uint64"}]}],"stateMutability":"pure"},{"type":"function","name":"withdrawable","inputs":[{"name":"","type":"address","internalType":"address"}],"outputs":[{"name":"","type":"tuple","internalType":"struct L1Read.Withdrawable","components":[{"name":"withdrawable","type":"uint64","internalType":"uint64"}]}],"stateMutability":"pure"}],"bytecode":{"object":"0x608080604052346100525760015f8190526020527fcc69885fda6bcc1a4ace058b4a62bf5e179ea78fd58a1ccd71c22cc9b688792f80546001600160401b03191661c350179055610db890816100578239f35b5f80fdfe60806040908082526004361015610014575f80fd5b5f9060e08235811c918263298c900514610a775750816337f980a514610a025781634162cd32146109325781634c5d4d43146108e35781636074f099146107e957816368fb11091461067257816389cf7c89146105ff5781638d1f42641461059d57816390702759146101f9578163944fa526146105185781639dbfb13f146104d8578163a69610d11461045f578163b6dff0b51461038a578163be06f7ac1461028b57508063bffe3486146101fe578063c0f0f5ef146101f9578063c8eec8c6146101a7578063ce513b6f146101635763ee1b5af1146100f3575f80fd5b3461016057816003193601126101605761010b610a9a565b50610114610ab4565b50806020835161012381610bce565b828152015281519061013482610bce565b808252602082015261015e82518092602090816001600160401b0391828151168552015116910152565bf35b80fd5b5090346101a35760203660031901126101a35790602091610182610a9a565b5081815161018f81610be9565b5281815161019c81610be9565b5251908152f35b5080fd5b5090346101a35760203660031901126101a35760209163ffffffff6101ca610aca565b16815260018352819020546001600160401b0390811680156101ef57915b5191168152f35b5061c350916101e8565b610b42565b503461016057602090816003193601126101605761021a610a9a565b5082519061022782610be9565b808252835192808401908085528351809252808686019401925b82811061024e5785850386f35b835180516001600160a01b03168652808301516001600160401b039081168785015290880151168786015260609094019392810192600101610241565b8284346101a357602091826003193601126101605792906102aa610aca565b506060608082516102ba81610b97565b86815286868201528684820152868382015201528281516102da81610be9565b8581528251926102e984610b97565b8684528280850192888452828601898152606087018a8152608088019283528451998a9281845260c08401996001600160401b03988995869485809451169101525116878d0152511660608b015251166080890152519560a08089015286518096528701950196915b84831061035f5786860387f35b875180516001600160a01b031687528401518116868501529683019694810194600190920191610352565b50503461016057602091826003193601126101a357906103a8610aca565b5081516103b481610bce565b60608152838351916103c583610bce565b8436843701528151906103d782610bce565b80825260019384818401528351936103ee85610bce565b80516103f981610bce565b6007815266109510cbd554d160ca1b83820152855281850193845261042e815195838752516060848801526080870190610add565b9351929085015b600282106104435785850386f35b83516001600160401b0316815292820192908601908201610435565b8284346101a357806003193601126101a3579060609161047d610a9a565b50610486610b1b565b508181805161049481610c04565b828152826020820152015280516104aa81610c04565b8281528160208201918483520183815282519384526001600160401b03809251166020850152511690820152f35b8284346101a35760203660031901126101a3576020916104f6610a9a565b50815161050281610be9565b526001815161051081610be9565b525160018152f35b8284346101a357806003193601126101a357608091610535610aca565b5061053e610ab4565b50610547610d5e565b5081519161055483610b68565b620186a092838152602081019061c3508252606083820191620124f883520193845282519485526001600160401b038092511660208601525116908301525160070b6060820152f35b505034610160576020366003190112610160576105b8610aca565b50602082516105c681610bce565b828152015280516105d681610bce565b61c2ec80825261c3b460209283019081528351918252516001600160401b031691810191909152f35b8284346101a357806003193601126101a35760a090608061062f610621610a9a565b610629610b31565b90610c1f565b825192815160070b84526001600160401b0360208301511660208501528082015160070b9084015263ffffffff6060820151166060840152015115156080820152f35b905082346107e557602091826003193601126107e15791809361012093610697610aca565b50818185516106a581610bb2565b6060815260608682015282878201528260608201528260808201528260a08201528260c082015201528351906106da82610be9565b8282528451916106e983610bb2565b85516106f481610bce565b600381526242544360e81b868201528352848301908152858301848152606084018581526080850186815260a08601926008845260c087019460128652610754878901988a8a528c519d8e918d83525191610100809e8201520190610add565b90519a601f198d830301908d01528c808c5192838152019b0190895b8181106107c457505090516001600160401b031660608c01525090516001600160a01b0390811660808b015290511660a08901525160ff90811660c08901529051169086015251900b908301528190039150f35b82516001600160401b03168d529b8e019b918e0191600101610770565b8380fd5b8280fd5b905082346107e55760803660031901126107e557610805610a9a565b9161080e610b31565b604435938460070b8095036108df576064356001600160401b038082168092036108db5785519661083e88610b97565b875260208701918252858701928884526060880194600a865260808901918a835260018060a01b03168a528960205261ffff888b2091168a526020526fffffffffffffffff0000000000000000878a2098519789549451901b16935160801b9463ffffffff60c01b905160c01b169560ff60e01b91511515901b1695169062ffffff60e81b161717906001600160401b0360801b16171717905580f35b8780fd5b8580fd5b8284346101a357806003193601126101a3576001600160401b03610905610aca565b9163ffffffff610913610b1b565b931684526001602052832091166001600160401b031982541617905580f35b8284346101a357602090816003193601126107e55760a092610952610aca565b50806080835161096181610b97565b6060815282868201528285820152826060820152015260ff82519361098585610b97565b835161099081610bce565b600381526242544360e81b828201528552818186019460018652808701906008825263ffffffff6109e160608a01956032875260808b0198895283519b8c9b828d5251918c015260c08b0190610add565b97511690880152511660608601525116608084015251151560a08301520390f35b8284346101a35760203660031901126101a35790608091610a21610a9a565b50610a2a610d5e565b50805190610a3782610b68565b8282526020820190838252606081840193858552019184835281519485526001600160401b03938480925116602087015251169084015251166060820152f35b8390346101a357816003193601126101a3576020906001600160401b0343168152f35b600435906001600160a01b0382168203610ab057565b5f80fd5b602435906001600160a01b0382168203610ab057565b6004359063ffffffff82168203610ab057565b91908251928382525f5b848110610b07575050825f602080949584010152601f8019910116010190565b602081830181015184830182015201610ae7565b602435906001600160401b0382168203610ab057565b6024359061ffff82168203610ab057565b34610ab0576020366003190112610ab057610b5b610aca565b50602060405161c3508152f35b608081019081106001600160401b03821117610b8357604052565b634e487b7160e01b5f52604160045260245ffd5b60a081019081106001600160401b03821117610b8357604052565b61010081019081106001600160401b03821117610b8357604052565b604081019081106001600160401b03821117610b8357604052565b602081019081106001600160401b03821117610b8357604052565b606081019081106001600160401b03821117610b8357604052565b604090815191610c2e83610b97565b5f9182845282608060209582878201528285820152826060820152015260018060a01b038116835282845281832061ffff86168452845281832094825195610c7587610b97565b548060070b80885260ff6001600160401b0383871c169283898b01528060801c60070b878b015263ffffffff8160c01c1660608b015260e01c1615156080890152159081610d55575b50610ccb57505050505090565b83949550603291606491845190888201926bffffffffffffffffffffffff199060601b16835261ffff60f01b9060f01b16603482015242603682015260368152610d1481610c04565b5190200610610d465761afc8815194610d2c86610b97565b6103e88652850152830152600a6060830152608082015290565b61d6d8815194610d2c86610b97565b9050155f610cbe565b60405190610d6b82610b68565b5f606083828152826020820152826040820152015256fea264697066735822122060a85a81f347785070a117f7e1ebed4bfe34f6b3c005e47b410390e1b2c7683964736f6c63430008140033","linkReferences":{}},"methodIdentifiers":{"accountMarginSummary(uint32,address)":"944fa526","bbo(uint32)":"8d1f4264","coreUserExists(address)":"9dbfb13f","delegations(address)":"bffe3486","delegatorSummary(address)":"37f980a5","l1BlockNumber()":"298c9005","markPx(uint32)":"c8eec8c6","oraclePx(uint32)":"c0f0f5ef","perpAssetInfo(uint32)":"4162cd32","position(address,uint16)":"89cf7c89","setMockMarkPrice(uint32,uint64)":"4c5d4d43","setMockPosition(address,uint16,int64,uint64)":"6074f099","spotBalance(address,uint64)":"a69610d1","spotInfo(uint32)":"b6dff0b5","spotPx(uint32)":"90702759","tokenInfo(uint32)":"68fb1109","tokenSupply(uint32)":"be06f7ac","userVaultEquity(address,address)":"ee1b5af1","withdrawable(address)":"ce513b6f"},"id":37}