{"abi":[{"type":"function","name":"accountMarginSummary","inputs":[{"name":"perp_dex_index","type":"uint32","internalType":"uint32"},{"name":"user","type":"address","internalType":"address"}],"outputs":[{"name":"","type":"tuple","internalType":"struct L1Read.AccountMarginSummary","components":[{"name":"accountValue","type":"int64","internalType":"int64"},{"name":"marginUsed","type":"uint64","internalType":"uint64"},{"name":"ntlPos","type":"uint64","internalType":"uint64"},{"name":"rawUsd","type":"int64","internalType":"int64"}]}],"stateMutability":"view"},{"type":"function","name":"bbo","inputs":[{"name":"asset","type":"uint32","internalType":"uint32"}],"outputs":[{"name":"","type":"tuple","internalType":"struct L1Read.Bbo","components":[{"name":"bid","type":"uint64","internalType":"uint64"},{"name":"ask","type":"uint64","internalType":"uint64"}]}],"stateMutability":"view"},{"type":"function","name":"coreUserExists","inputs":[{"name":"user","type":"address","internalType":"address"}],"outputs":[{"name":"","type":"tuple","internalType":"struct L1Read.CoreUserExists","components":[{"name":"exists","type":"bool","internalType":"bool"}]}],"stateMutability":"view"},{"type":"function","name":"delegations","inputs":[{"name":"user","type":"address","internalType":"address"}],"outputs":[{"name":"","type":"tuple[]","internalType":"struct L1Read.Delegation[]","components":[{"name":"validator","type":"address","internalType":"address"},{"name":"amount","type":"uint64","internalType":"uint64"},{"name":"lockedUntilTimestamp","type":"uint64","internalType":"uint64"}]}],"stateMutability":"view"},{"type":"function","name":"delegatorSummary","inputs":[{"name":"user","type":"address","internalType":"address"}],"outputs":[{"name":"","type":"tuple","internalType":"struct L1Read.DelegatorSummary","components":[{"name":"delegated","type":"uint64","internalType":"uint64"},{"name":"undelegated","type":"uint64","internalType":"uint64"},{"name":"totalPendingWithdrawal","type":"uint64","internalType":"uint64"},{"name":"nPendingWithdrawals","type":"uint64","internalType":"uint64"}]}],"stateMutability":"view"},{"type":"function","name":"l1BlockNumber","inputs":[],"outputs":[{"name":"","type":"uint64","internalType":"uint64"}],"stateMutability":"view"},{"type":"function","name":"markPx","inputs":[{"name":"index","type":"uint32","internalType":"uint32"}],"outputs":[{"name":"","type":"uint64","internalType":"uint64"}],"stateMutability":"view"},{"type":"function","name":"oraclePx","inputs":[{"name":"index","type":"uint32","internalType":"uint32"}],"outputs":[{"name":"","type":"uint64","internalType":"uint64"}],"stateMutability":"view"},{"type":"function","name":"perpAssetInfo","inputs":[{"name":"perp","type":"uint32","internalType":"uint32"}],"outputs":[{"name":"","type":"tuple","internalType":"struct L1Read.PerpAssetInfo","components":[{"name":"coin","type":"string","internalType":"string"},{"name":"marginTableId","type":"uint32","internalType":"uint32"},{"name":"szDecimals","type":"uint8","internalType":"uint8"},{"name":"maxLeverage","type":"uint8","internalType":"uint8"},{"name":"onlyIsolated","type":"bool","internalType":"bool"}]}],"stateMutability":"view"},{"type":"function","name":"position","inputs":[{"name":"user","type":"address","internalType":"address"},{"name":"perp","type":"uint16","internalType":"uint16"}],"outputs":[{"name":"","type":"tuple","internalType":"struct L1Read.Position","components":[{"name":"szi","type":"int64","internalType":"int64"},{"name":"entryNtl","type":"uint64","internalType":"uint64"},{"name":"isolatedRawUsd","type":"int64","internalType":"int64"},{"name":"leverage","type":"uint32","internalType":"uint32"},{"name":"isIsolated","type":"bool","internalType":"bool"}]}],"stateMutability":"view"},{"type":"function","name":"spotBalance","inputs":[{"name":"user","type":"address","internalType":"address"},{"name":"token","type":"uint64","internalType":"uint64"}],"outputs":[{"name":"","type":"tuple","internalType":"struct L1Read.SpotBalance","components":[{"name":"total","type":"uint64","internalType":"uint64"},{"name":"hold","type":"uint64","internalType":"uint64"},{"name":"entryNtl","type":"uint64","internalType":"uint64"}]}],"stateMutability":"view"},{"type":"function","name":"spotInfo","inputs":[{"name":"spot","type":"uint32","internalType":"uint32"}],"outputs":[{"name":"","type":"tuple","internalType":"struct L1Read.SpotInfo","components":[{"name":"name","type":"string","internalType":"string"},{"name":"tokens","type":"uint64[2]","internalType":"uint64[2]"}]}],"stateMutability":"view"},{"type":"function","name":"spotPx","inputs":[{"name":"index","type":"uint32","internalType":"uint32"}],"outputs":[{"name":"","type":"uint64","internalType":"uint64"}],"stateMutability":"view"},{"type":"function","name":"tokenInfo","inputs":[{"name":"token","type":"uint32","internalType":"uint32"}],"outputs":[{"name":"","type":"tuple","internalType":"struct L1Read.TokenInfo","components":[{"name":"name","type":"string","internalType":"string"},{"name":"spots","type":"uint64[]","internalType":"uint64[]"},{"name":"deployerTradingFeeShare","type":"uint64","internalType":"uint64"},{"name":"deployer","type":"address","internalType":"address"},{"name":"evmContract","type":"address","internalType":"address"},{"name":"szDecimals","type":"uint8","internalType":"uint8"},{"name":"weiDecimals","type":"uint8","internalType":"uint8"},{"name":"evmExtraWeiDecimals","type":"int8","internalType":"int8"}]}],"stateMutability":"view"},{"type":"function","name":"tokenSupply","inputs":[{"name":"token","type":"uint32","internalType":"uint32"}],"outputs":[{"name":"","type":"tuple","internalType":"struct L1Read.TokenSupply","components":[{"name":"maxSupply","type":"uint64","internalType":"uint64"},{"name":"totalSupply","type":"uint64","internalType":"uint64"},{"name":"circulatingSupply","type":"uint64","internalType":"uint64"},{"name":"futureEmissions","type":"uint64","internalType":"uint64"},{"name":"nonCirculatingUserBalances","type":"tuple[]","internalType":"struct L1Read.UserBalance[]","components":[{"name":"user","type":"address","internalType":"address"},{"name":"balance","type":"uint64","internalType":"uint64"}]}]}],"stateMutability":"view"},{"type":"function","name":"userVaultEquity","inputs":[{"name":"user","type":"address","internalType":"address"},{"name":"vault","type":"address","internalType":"address"}],"outputs":[{"name":"","type":"tuple","internalType":"struct L1Read.UserVaultEquity","components":[{"name":"equity","type":"uint64","internalType":"uint64"},{"name":"lockedUntilTimestamp","type":"uint64","internalType":"uint64"}]}],"stateMutability":"view"},{"type":"function","name":"withdrawable","inputs":[{"name":"user","type":"address","internalType":"address"}],"outputs":[{"name":"","type":"tuple","internalType":"struct L1Read.Withdrawable","components":[{"name":"withdrawable","type":"uint64","internalType":"uint64"}]}],"stateMutability":"view"}],"bytecode":{"object":"0x6080806040523461001657611a19908161001b8239f35b5f80fdfe60808060405260049081361015610014575f80fd5b5f3560e01c908163298c90051461167e5750806337f980a5146115425780634162cd321461139257806368fb1109146110b357806389cf7c8914610f335780638d1f426414610e6d5780639070275914610dc2578063944fa52614610c695780639dbfb13f14610b81578063a69610d114610a3f578063b6dff0b514610890578063be06f7ac14610611578063bffe34861461043a578063c0f0f5ef1461038f578063c8eec8c6146102d3578063ce513b6f146101e85763ee1b5af1146100d9575f80fd5b34610195576040366003190112610195575f806100f4611724565b6100fc61173a565b9082602060405161010c81611845565b8281520152604080516001600160a01b03928316602082019081529390921682820152815261013a8161182a565b51906108025afa9061014a61189c565b9115610199575080518101604082820312610195576040916020806101719301910161190b565b61019382518092602090816001600160401b0391828151168552015116910152565bf35b5f80fd5b60849060206040519162461bcd60e51b8352820152602260248201527f5661756c7445717569747920707265636f6d70696c652063616c6c206661696c604482015261195960f21b6064820152fd5b50346101955760209081600319360112610195575f80610206611724565b816040516102138161180f565b526040516001600160a01b039091168582019081528582529061023581611845565b51906108035afa9061024561189c565b9115610283575081818051810103126101955761026f82604051926102698461180f565b016118d9565b8091526001600160401b0360405191168152f35b60405162461bcd60e51b8152908101839052602360248201527f576974686472617761626c6520707265636f6d70696c652063616c6c206661696044820152621b195960ea1b6064820152608490fd5b50346101955760209081600319360112610195575f806102f1611750565b60405163ffffffff8682019216825285815261030c81611845565b51906108065afa9061031c61189c565b911561034b57508181805181010312610195578161033a91016118d9565b6001600160401b0360405191168152f35b60405162461bcd60e51b8152908101839052601d60248201527f4d61726b507820707265636f6d70696c652063616c6c206661696c65640000006044820152606490fd5b50346101955760209081600319360112610195575f806103ad611750565b60405163ffffffff868201921682528581526103c881611845565b51906108075afa906103d861189c565b91156103f657508181805181010312610195578161033a91016118d9565b60405162461bcd60e51b8152908101839052601f60248201527f4f7261636c65507820707265636f6d70696c652063616c6c206661696c6564006044820152606490fd5b5034610195576020908160031936011261019557610456611724565b915f806040518381019060018060a01b03809716825284815261047881611845565b51906108045afa9161048861189c565b92156105c45750815182019080820193818484031261019557818401516001600160401b039485821161019557019480603f870112156101955782860151906104d082611941565b946104de6040519687611860565b82865284860190819860406060809602820101938411610195576040909997969594989901915b83831061056657505050506040519482860193838752518094526040860194965f925b8584106105355787870388f35b8851805182168852808601518316888701526040908101518316908801529784019795820195600190930192610528565b888684849c9b9798999a9c030112610195578685916040516105878161182a565b61059086611958565b815261059d8387016118d9565b838201526105ad604087016118d9565b604082015281520192019198969594939798610505565b6084916040519162461bcd60e51b8352820152602260248201527f44656c65676174696f6e7320707265636f6d70696c652063616c6c206661696c604482015261195960f21b6064820152fd5b503461019557602080600319360112610195575f8061062e611750565b6060608060405161063e816117d8565b84815284878201528460408201528483820152015260405163ffffffff8582019216825284815261066e81611845565b519061080d5afa9161067e61189c565b921561084357508151820190808201818484031261019557818401516001600160401b039485821161019557019060a08285031261019557604051916106c3836117d8565b6106ce8482016118d9565b83526106dc604082016118d9565b948484019586526106ef606083016118d9565b9060408501918252610703608084016118d9565b926060860193845260a08101519089821161019557019380603f8601121561019557868501519161073383611941565b956107416040519788611860565b83875260408988019460061b820101928311610195579060408b969594939299989901925b8284106107f157505050508290608087019485528160405198878a528160c08b01995116888b0152511660408901525116606087015251166080850152519160a08085015282518091528160e085019301915f5b8281106107c75785850386f35b835180516001600160a01b03168652820151871685830152604090940193928101926001016107ba565b9091929394955060408885849b9a9b0301126101955788604091825161081681611845565b61081f87611958565b815261082c8388016118d9565b83820152815201930191908a959493989798610766565b6084916040519162461bcd60e51b8352820152602260248201527f546f6b656e537570706c7920707265636f6d70696c652063616c6c206661696c604482015261195960f21b6064820152fd5b50346101955760209081600319360112610195575f806108ae611750565b6040516108ba81611845565b6060815285604051916108cc83611845565b6040368437015260405163ffffffff868201921682528581526108ee81611845565b519061080b5afa906108fe61189c565b91156109fb5750805181018281019183818303126101955783810151906001600160401b0391828111610195576060910180930312610195576040519261094484611845565b8483015182811161019557818661095d92860101611990565b845280605f84011215610195576040519261097784611845565b8360808201928311610195576040879201905b8382106109e4575050905083019182526109b560405193858552516060868601526080850190611784565b91515f9490604085015b600287106109cd5785850386f35b8280600192868551168152019201960195906109bf565b8280916109f0846118d9565b81520191019061098a565b60405162461bcd60e51b8152908101839052601f60248201527f53706f74496e666f20707265636f6d70696c652063616c6c206661696c6564006044820152606490fd5b503461019557604036600319011261019557610a59611724565b90602435916001600160401b0390818416809403610195575f809160405195610a818761182a565b828752826040602098828a8201520152604051908782019260018060a01b03168352604082015260408152610ab58161182a565b51906108015afa91610ac561189c565b9215610b32575060608280518101031261019557604051606093610ae88261182a565b82610af48286016118d9565b948584526040610b1688610b098385016118d9565b93868801948552016118d9565b9401938452816040519616865251169084015251166040820152f35b60405162461bcd60e51b8152908101849052602260248201527f53706f7442616c616e636520707265636f6d70696c652063616c6c206661696c604482015261195960f21b6064820152608490fd5b50346101955760209081600319360112610195575f80610b9f611724565b81604051610bac8161180f565b526040516001600160a01b0390911685820190815285825290610bce81611845565b51906108105afa90610bde61189c565b9115610c155750818180518101031261019557610c088260405192610c028461180f565b016118fe565b8091526040519015158152f35b60405162461bcd60e51b8152908101839052602760248201527f436f726520757365722065786973747320707265636f6d70696c652063616c6c6044820152660819985a5b195960ca1b6064820152608490fd5b5034610195576040366003190112610195575f80610c85611750565b610c8d61173a565b610c9561196c565b506040519063ffffffff602083019316835260018060a01b0316604082015260408152610cc18161182a565b519061080f5afa90610cd161189c565b9115610d68575060808180518101031261019557608090604051610cf4816117a9565b610d00602083016118cb565b91828252610d10604082016118d9565b90602083019182526060610d3786610d298385016118d9565b9360408701948552016118cb565b93019283526040519360070b84526001600160401b03809251166020850152511660408301525160070b6060820152f35b60849060206040519162461bcd60e51b8352820152602d60248201527f4163636f756e74206d617267696e2073756d6d61727920707265636f6d70696c60448201526c194818d85b1b0819985a5b1959609a1b6064820152fd5b50346101955760209081600319360112610195575f80610de0611750565b60405163ffffffff86820192168252858152610dfb81611845565b51906108085afa90610e0b61189c565b9115610e2957508181805181010312610195578161033a91016118d9565b60405162461bcd60e51b8152908101839052601d60248201527f53706f74507820707265636f6d70696c652063616c6c206661696c65640000006044820152606490fd5b50346101955760209081600319360112610195575f80610e8b611750565b8185604051610e9981611845565b828152015260405163ffffffff86820192168252858152610eb981611845565b519061080e5afa90610ec961189c565b9115610eef5750805181019060408183031261019557826040936101719301910161190b565b60405162461bcd60e51b8152908101839052601a60248201527f42626f20707265636f6d70696c652063616c6c206661696c65640000000000006044820152606490fd5b503461019557604036600319011261019557610f4d611724565b6024359061ffff8216809203610195575f809160405193610f6d856117d8565b82855282608060209682888201528260408201528260608201520152604051908582019260018060a01b03168352604082015260408152610fad8161182a565b51906108005afa91610fbd61189c565b9215611071575060a0828051810103126101955760a09163ffffffff60405191610fe6836117d8565b610ff18482016118cb565b93848452611001604083016118d9565b908085019182526001600160401b0361101c606085016118cb565b926040870193845260806110438a6110358389016118ed565b9760608b01988952016118fe565b97019687526040519760070b88525116908601525160070b6040850152511660608301525115156080820152f35b6064916040519162461bcd60e51b8352820152601f60248201527f506f736974696f6e20707265636f6d70696c652063616c6c206661696c6564006044820152fd5b5034610195576020366003190112610195575f806110cf611750565b8160e06040516110de816117f3565b60608152606060208201528260408201528260608201528260808201528260a08201528260c0820152015260405163ffffffff60208201921682526020815261112681611845565b519061080c5afa9061113661189c565b911561134e57508051810160208101916020818303126101955760208101516001600160401b03811161019557610100910180920312610195576040519161117d836117f3565b60208201516001600160401b0381116101955781602061119f92850101611990565b835260408201516001600160401b0381116101955782019080603f830112156101955760208201516111d081611941565b926111de6040519485611860565b8184526040602085019260051b82010192831161019557604001905b828210611336575050506020830152611215606082016118d9565b604083015261122660808201611958565b606083015261123760a08201611958565b608083015261124860c082016119d5565b60a083015261010061125c60e083016119d5565b9160c084019283520151805f0b81036101955760e0830152604051906020825261129483516101006020850152610120840190611784565b602084810151848303601f19016040860152805180845292820193929101905f5b818110611317575050508360ff60e0926001600160401b0360408798015116606087015260018060a01b0380606085015116608088015260808401511660a08701528160a08401511660c087015251168285015201515f0b6101008301520390f35b82516001600160401b03168552602094850194909201916001016112b5565b60208091611343846118d9565b8152019101906111fa565b60649060206040519162461bcd60e51b8352820152602060248201527f546f6b656e496e666f20707265636f6d70696c652063616c6c206661696c65646044820152fd5b50346101955760209081600319360112610195576113ae611750565b5f60806040516113bd816117d8565b60608152828682015282604082015282606082015201525f806040518581019063ffffffff80951682528681526113f381611845565b519061080a5afa9161140361189c565b92156114f257508151820192808385031261019557808301516001600160401b039384821161019557019260a0848603126101955760405193611445856117d8565b828101519182116101955761146560ff92848060a0990191840101611990565b855281611474604083016118ed565b94848701958652611487606084016119d5565b90604088019182526114d06114b08a6114a2608088016119d5565b9660608c01978852016118fe565b9660808a019788526040519a8b9a828c5251918b015260c08a0190611784565b9651166040880152511660608601525116608084015251151560a08301520390f35b60405162461bcd60e51b81529081018490526024808201527f506572704173736574496e666f20707265636f6d70696c652063616c6c2066616044820152631a5b195960e21b6064820152608490fd5b503461019557602080600319360112610195575f8061155f611724565b61156761196c565b506040516001600160a01b039091168482019081528482529061158981611845565b51906108055afa9161159961189c565b921561162b5750608082805181010312610195576080916040516115bc816117a9565b6115c78383016118d9565b8082526115d6604084016118d9565b9284830193845260606115fc876115ee8385016118d9565b9360408701948552016118d9565b9301928352604051946001600160401b0380958180951688525116908601525116604084015251166060820152f35b6084916040519162461bcd60e51b8352820152602860248201527f44656c656761746f727953756d6d61727920707265636f6d70696c652063616c6044820152671b0819985a5b195960c21b6064820152fd5b905034610195575f366003190112610195575f818180935261169f8161180f565b6020815191016108095afa906116b361189c565b91156116d457506020818051810103126101955761033a60208092016118d9565b60849060206040519162461bcd60e51b83528201526024808201527f4c31426c6f636b4e756d62657220707265636f6d70696c652063616c6c2066616044820152631a5b195960e21b6064820152fd5b600435906001600160a01b038216820361019557565b602435906001600160a01b038216820361019557565b6004359063ffffffff8216820361019557565b5f5b8381106117745750505f910152565b8181015183820152602001611765565b9060209161179d81518092818552858086019101611763565b601f01601f1916010190565b608081019081106001600160401b038211176117c457604052565b634e487b7160e01b5f52604160045260245ffd5b60a081019081106001600160401b038211176117c457604052565b61010081019081106001600160401b038211176117c457604052565b602081019081106001600160401b038211176117c457604052565b606081019081106001600160401b038211176117c457604052565b604081019081106001600160401b038211176117c457604052565b90601f801991011681019081106001600160401b038211176117c457604052565b6001600160401b0381116117c457601f01601f191660200190565b3d156118c6573d906118ad82611881565b916118bb6040519384611860565b82523d5f602084013e565b606090565b51908160070b820361019557565b51906001600160401b038216820361019557565b519063ffffffff8216820361019557565b5190811515820361019557565b91908260409103126101955760405161192381611845565b602061193c818395611934816118d9565b8552016118d9565b910152565b6001600160401b0381116117c45760051b60200190565b51906001600160a01b038216820361019557565b60405190611979826117a9565b5f6060838281528260208201528260408201520152565b81601f820112156101955780516119a681611881565b926119b46040519485611860565b81845260208284010111610195576119d29160208085019101611763565b90565b519060ff821682036101955756fea2646970667358221220b79d0e5ef4ff00973dfab47faf36e6941241e99d009be3c9a48ef5072435328a64736f6c63430008140033","linkReferences":{}},"methodIdentifiers":{"accountMarginSummary(uint32,address)":"944fa526","bbo(uint32)":"8d1f4264","coreUserExists(address)":"9dbfb13f","delegations(address)":"bffe3486","delegatorSummary(address)":"37f980a5","l1BlockNumber()":"298c9005","markPx(uint32)":"c8eec8c6","oraclePx(uint32)":"c0f0f5ef","perpAssetInfo(uint32)":"4162cd32","position(address,uint16)":"89cf7c89","spotBalance(address,uint64)":"a69610d1","spotInfo(uint32)":"b6dff0b5","spotPx(uint32)":"90702759","tokenInfo(uint32)":"68fb1109","tokenSupply(uint32)":"be06f7ac","userVaultEquity(address,address)":"ee1b5af1","withdrawable(address)":"ce513b6f"},"id":31}