{"abi":[{"type":"constructor","inputs":[{"name":"_pnlBetLogic","type":"address","internalType":"address"}],"stateMutability":"nonpayable"},{"type":"function","name":"allBets","inputs":[{"name":"","type":"uint256","internalType":"uint256"}],"outputs":[{"name":"","type":"address","internalType":"address"}],"stateMutability":"view"},{"type":"function","name":"batchSettle","inputs":[{"name":"betAddresses","type":"address[]","internalType":"address[]"}],"outputs":[],"stateMutability":"nonpayable"},{"type":"function","name":"createBet","inputs":[{"name":"_targetUser","type":"address","internalType":"address"},{"name":"_perpId","type":"uint32","internalType":"uint32"},{"name":"_duration","type":"uint256","internalType":"uint256"}],"outputs":[{"name":"","type":"address","internalType":"address"}],"stateMutability":"nonpayable"},{"type":"function","name":"getActiveBets","inputs":[],"outputs":[{"name":"","type":"address[]","internalType":"address[]"}],"stateMutability":"view"},{"type":"function","name":"getAllBets","inputs":[],"outputs":[{"name":"","type":"address[]","internalType":"address[]"}],"stateMutability":"view"},{"type":"function","name":"getBetCount","inputs":[],"outputs":[{"name":"","type":"uint256","internalType":"uint256"}],"stateMutability":"view"},{"type":"function","name":"getSettlableBets","inputs":[],"outputs":[{"name":"","type":"address[]","internalType":"address[]"}],"stateMutability":"view"},{"type":"function","name":"getTargetUserBets","inputs":[{"name":"targetUser","type":"address","internalType":"address"}],"outputs":[{"name":"","type":"address[]","internalType":"address[]"}],"stateMutability":"view"},{"type":"function","name":"getUserCreatedBets","inputs":[{"name":"user","type":"address","internalType":"address"}],"outputs":[{"name":"","type":"address[]","internalType":"address[]"}],"stateMutability":"view"},{"type":"function","name":"owner","inputs":[],"outputs":[{"name":"","type":"address","internalType":"address"}],"stateMutability":"view"},{"type":"function","name":"pnlBetLogic","inputs":[],"outputs":[{"name":"","type":"address","internalType":"address"}],"stateMutability":"view"},{"type":"function","name":"renounceOwnership","inputs":[],"outputs":[],"stateMutability":"nonpayable"},{"type":"function","name":"targetUserBets","inputs":[{"name":"","type":"address","internalType":"address"},{"name":"","type":"uint256","internalType":"uint256"}],"outputs":[{"name":"","type":"address","internalType":"address"}],"stateMutability":"view"},{"type":"function","name":"transferOwnership","inputs":[{"name":"newOwner","type":"address","internalType":"address"}],"outputs":[],"stateMutability":"nonpayable"},{"type":"function","name":"userCreatedBets","inputs":[{"name":"","type":"address","internalType":"address"},{"name":"","type":"uint256","internalType":"uint256"}],"outputs":[{"name":"","type":"address","internalType":"address"}],"stateMutability":"view"},{"type":"event","name":"BetCreated","inputs":[{"name":"newBetAddress","type":"address","indexed":true,"internalType":"address"},{"name":"creator","type":"address","indexed":true,"internalType":"address"},{"name":"targetUser","type":"address","indexed":true,"internalType":"address"},{"name":"perpId","type":"uint32","indexed":false,"internalType":"uint32"},{"name":"endTime","type":"uint256","indexed":false,"internalType":"uint256"}],"anonymous":false},{"type":"event","name":"OwnershipTransferred","inputs":[{"name":"previousOwner","type":"address","indexed":true,"internalType":"address"},{"name":"newOwner","type":"address","indexed":true,"internalType":"address"}],"anonymous":false},{"type":"error","name":"FailedDeployment","inputs":[]},{"type":"error","name":"InsufficientBalance","inputs":[{"name":"balance","type":"uint256","internalType":"uint256"},{"name":"needed","type":"uint256","internalType":"uint256"}]},{"type":"error","name":"InvalidDuration","inputs":[]},{"type":"error","name":"InvalidTargetUser","inputs":[]},{"type":"error","name":"OwnableInvalidOwner","inputs":[{"name":"owner","type":"address","internalType":"address"}]},{"type":"error","name":"OwnableUnauthorizedAccount","inputs":[{"name":"account","type":"address","internalType":"address"}]}],"bytecode":{"object":"0x60a0346100c957601f61101d38819003918201601f19168301916001600160401b038311848410176100cd578084926020946040528339810103126100c957516001600160a01b039081811681036100c95733156100b1575f543360018060a01b03198216175f55604051923391167f8be0079c531659141344cd1fd0a4f28419497f9722a3daafe3b4186f6b6457e05f80a3608052610f3b90816100e282396080518181816101300152610cd30152f35b604051631e4fbdf760e01b81525f6004820152602490fd5b5f80fd5b634e487b7160e01b5f52604160045260245ffdfe608060409080825260049182361015610016575f80fd5b5f91823560e01c90816348767ca114610cbf57508063700eae7314610c3e57806370bae4da14610bc6578063715018a614610b6c57806389f5e73a14610b145780638da5cb5b14610aed57806398c5d95014610a955780639a58e83814610861578063ada73020146105e9578063afedbc6e14610449578063b93dab0b1461042b578063d5e81ab6146103a5578063e0ced0e114610361578063f2fde38b146102d65763fa2b8adf146100c7575f80fd5b34610282576060366003190112610282576100e0610d45565b9160243563ffffffff8116809103610282576001600160a01b039384169160443583156102c657801580156102b9575b6102a957420190814211610296576e5af43d82803e903d91602b57fd5bf37f0000000000000000000000000000000000000000000000000000000000000000763d602d80600a3d3981f3363d3d373d3d3d363d7300000062ffffff8260881c1617835260781b176020526037600982f09086821696871561028657873b15610282578651630f19aaef60e01b8152868a8201528560248201528460448201528281606481838d5af1801561027857610269575b50600154600160401b81101561025657602099509187916101ee846001610221979601600155610d5f565b819291549060031b918c831b921b191617905533815260028a5261021483838320610e32565b86815260038a5220610e32565b835191825285820152837f3b50901a096247a05d7934d74a71721482678af0726ed0e2d25c91d64bf08df0843393a451908152f35b634e487b7160e01b835260418a52602483fd5b61027290610de8565b5f6101c3565b88513d85823e3d90fd5b5080fd5b865163b06ebf3d60e01b81528990fd5b634e487b7160e01b815260118752602490fd5b8451637616640160e01b81528790fd5b506301e133808111610110565b8451631b8d2f1b60e31b81528790fd5b50823461035d57602036600319011261035d576102f1610d45565b906102fa610dbd565b6001600160a01b0391821692831561034757505082546001600160a01b0319811683178455167f8be0079c531659141344cd1fd0a4f28419497f9722a3daafe3b4186f6b6457e08380a380f35b51631e4fbdf760e01b8152908101849052602490fd5b8280fd5b50823461035d57602036600319011261035d5735916001548310156103a2575061038c602092610d5f565b905491519160018060a01b039160031b1c168152f35b80fd5b5034610282576020908160031936011261035d576001600160a01b0392836103cb610d45565b16815260038352818120938251908194808754938481520196845280842093915b8383106104125761040e8787610404828c0383610e10565b5191829182610d02565b0390f35b84548116885296810196600194850194909201916103ec565b50346102825781600319360112610282576020906001549051908152f35b50823461035d57602091826003193601126105e55767ffffffffffffffff9180358381116105e157366023820112156105e157808201359384116105e1576024906005368387831b840101116105dd57875b8681106104a6578880f35b8881831b84018501356001600160a01b03811690819003610282578751633270bb5b60e01b81528a818981855afa9081156105a65783916105b0575b50158061054e575b6104ff575b50506104fa90610e6d565b61049b565b803b1561028257819087895180948193630476982d60e21b83525af1801561054457906104fa9291610535575b8a9192506104ef565b61053e90610de8565b8a61052c565b87513d8c823e3d90fd5b5087516318cbe5db60e11b81528a818981855afa9081156105a6578391610579575b504210156104ea565b90508a81813d831161059f575b6105908183610e10565b8101031261035d57518c610570565b503d610586565b89513d85823e3d90fd5b6105d091508b3d8d116105d6575b6105c88183610e10565b810190610e8f565b8c6104e2565b503d6105be565b8780fd5b8580fd5b8380fd5b5082903461035d578260031936011261035d5760015483805b828110610756575061061390610ebf565b9284855b83811061062b5784518061040e8882610d02565b61063481610d5f565b90548651633270bb5b60e01b81526001600160a01b039260039260209291841b1c84169082818981855afa90811561074c579088918d9161072f575b501591826106c3575b50509050610692575b505061068d90610e6d565b610617565b926106bb9183946106a561068d95610d5f565b9054911b1c166106b5828a610ef1565b52610e6d565b919088610682565b8a516318cbe5db60e11b815292508391839182905afa918215610725578b926106f3575b5050421080868c610679565b90809250813d831161071e575b61070a8183610e10565b8101031261071a57518a806106e7565b8980fd5b503d610700565b89513d8d823e3d90fd5b6107469150843d86116105d6576105c88183610e10565b8d610670565b8a513d8e823e3d90fd5b61075f81610d5f565b90548551633270bb5b60e01b815260209260031b9190911c6001600160a01b03169082818981855afa908115610857579088918a9161083a575b501591826107ce575b505090506107b9575b6107b490610e6d565b610602565b906107c66107b491610e6d565b9190506107ab565b87516318cbe5db60e11b815292508391839182905afa9182156108305788926107fe575b505042108086896107a2565b90809250813d8311610829575b6108158183610e10565b81010312610825575187806107f2565b8680fd5b503d61080b565b86513d8a823e3d90fd5b6108519150843d86116105d6576105c88183610e10565b8a610799565b87513d8b823e3d90fd5b5082903461035d578260031936011261035d5760015483805b8281106109a1575061088b90610ebf565b9284855b8381106108a35784518061040e8882610d02565b6108ac81610d5f565b90548651633270bb5b60e01b81526001600160a01b039260039260209291841b1c84169082818981855afa90811561074c579088918d91610984575b50159182610925575b5050905061090a575b505061090590610e6d565b61088f565b9261091d9183946106a561090595610d5f565b9190886108fa565b8a516318cbe5db60e11b815292508391839182905afa918215610725578b92610956575b505042101580868c6108f1565b90809250813d831161097d575b61096d8183610e10565b8101031261071a57518a80610949565b503d610963565b61099b9150843d86116105d6576105c88183610e10565b8d6108e8565b6109aa81610d5f565b90548551633270bb5b60e01b815260209260031b9190911c6001600160a01b03169082818981855afa908115610857579088918a91610a78575b50159182610a19575b50509050610a04575b6109ff90610e6d565b61087a565b90610a116109ff91610e6d565b9190506109f6565b87516318cbe5db60e11b815292508391839182905afa918215610830578892610a4a575b50504210158086896109ed565b90809250813d8311610a71575b610a618183610e10565b8101031261082557518780610a3d565b503d610a57565b610a8f9150843d86116105d6576105c88183610e10565b8a6109e4565b5034610282578060031936011261028257610aae610d45565b6001600160a01b0390811683526003602052818320805460243594908510156103a25750602093610ade91610da8565b90549060031b1c169051908152f35b5034610282578160031936011261028257905490516001600160a01b039091168152602090f35b5034610282578060031936011261028257610b2d610d45565b6001600160a01b0390811683526002602052818320805460243594908510156103a25750602093610b5d91610da8565b92905490519260031b1c168152f35b82346103a257806003193601126103a257610b85610dbd565b80546001600160a01b03198116825581906001600160a01b03167f8be0079c531659141344cd1fd0a4f28419497f9722a3daafe3b4186f6b6457e08280a380f35b5034610282576020908160031936011261035d576001600160a01b039283610bec610d45565b16815260028352818120938251908194808754938481520196845280842093915b838310610c255761040e8787610404828c0383610e10565b8454811688529681019660019485019490920191610c0d565b5090346103a257806003193601126103a2578151918291600180548086526020809601958284527fb10e2d527612073b26eecdfd717e6a320cf44b4afac2b0732d9fcbe2b7fa0cf693905b828210610ca15761040e8787610404828c0383610e10565b84546001600160a01b03168852968701969383019390830190610c89565b8390346102825781600319360112610282577f00000000000000000000000000000000000000000000000000000000000000006001600160a01b03168152602090f35b602090816040818301928281528551809452019301915f5b828110610d28575050505090565b83516001600160a01b031685529381019392810192600101610d1a565b600435906001600160a01b0382168203610d5b57565b5f80fd5b600154811015610d945760015f527fb10e2d527612073b26eecdfd717e6a320cf44b4afac2b0732d9fcbe2b7fa0cf601905f90565b634e487b7160e01b5f52603260045260245ffd5b8054821015610d94575f5260205f2001905f90565b5f546001600160a01b03163303610dd057565b60405163118cdaa760e01b8152336004820152602490fd5b67ffffffffffffffff8111610dfc57604052565b634e487b7160e01b5f52604160045260245ffd5b90601f8019910116810190811067ffffffffffffffff821117610dfc57604052565b8054600160401b811015610dfc57610e4f91600182018155610da8565b819291549060031b9160018060a01b03809116831b921b1916179055565b5f198114610e7b5760010190565b634e487b7160e01b5f52601160045260245ffd5b90816020910312610d5b57518015158103610d5b5790565b67ffffffffffffffff8111610dfc5760051b60200190565b90610ec982610ea7565b610ed66040519182610e10565b8281528092610ee7601f1991610ea7565b0190602036910137565b8051821015610d945760209160051b01019056fea264697066735822122094585e5e2b6fc8a0f5f379067be0751524a2b7b71073e8a7294555eeba59317864736f6c63430008140033","linkReferences":{}},"methodIdentifiers":{"allBets(uint256)":"e0ced0e1","batchSettle(address[])":"afedbc6e","createBet(address,uint32,uint256)":"fa2b8adf","getActiveBets()":"ada73020","getAllBets()":"700eae73","getBetCount()":"b93dab0b","getSettlableBets()":"9a58e838","getTargetUserBets(address)":"d5e81ab6","getUserCreatedBets(address)":"70bae4da","owner()":"8da5cb5b","pnlBetLogic()":"48767ca1","renounceOwnership()":"715018a6","targetUserBets(address,uint256)":"98c5d950","transferOwnership(address)":"f2fde38b","userCreatedBets(address,uint256)":"89f5e73a"},"id":29}